{
  "contractName": "FundLean",
  "abi": [
    {
      "inputs": [],
      "stateMutability": "nonpayable",
      "type": "constructor"
    },
    {
      "anonymous": false,
      "inputs": [
        {
          "indexed": true,
          "internalType": "address",
          "name": "_to",
          "type": "address"
        },
        {
          "indexed": false,
          "internalType": "uint256",
          "name": "_value",
          "type": "uint256"
        }
      ],
      "name": "Consume",
      "type": "event"
    },
    {
      "anonymous": false,
      "inputs": [
        {
          "indexed": true,
          "internalType": "address",
          "name": "_from",
          "type": "address"
        },
        {
          "indexed": false,
          "internalType": "uint256",
          "name": "_value",
          "type": "uint256"
        }
      ],
      "name": "Receive",
      "type": "event"
    },
    {
      "anonymous": false,
      "inputs": [
        {
          "indexed": true,
          "internalType": "address",
          "name": "_to",
          "type": "address"
        },
        {
          "indexed": false,
          "internalType": "uint256",
          "name": "_value",
          "type": "uint256"
        }
      ],
      "name": "Withdraw",
      "type": "event"
    },
    {
      "inputs": [],
      "name": "owner",
      "outputs": [
        {
          "internalType": "address",
          "name": "",
          "type": "address"
        }
      ],
      "stateMutability": "view",
      "type": "function"
    },
    {
      "stateMutability": "payable",
      "type": "receive"
    },
    {
      "inputs": [],
      "name": "getBalance",
      "outputs": [
        {
          "internalType": "uint256",
          "name": "",
          "type": "uint256"
        }
      ],
      "stateMutability": "view",
      "type": "function"
    },
    {
      "inputs": [
        {
          "internalType": "address payable",
          "name": "to",
          "type": "address"
        },
        {
          "internalType": "uint256",
          "name": "amount",
          "type": "uint256"
        }
      ],
      "name": "consume",
      "outputs": [],
      "stateMutability": "payable",
      "type": "function"
    },
    {
      "inputs": [
        {
          "internalType": "address payable",
          "name": "to",
          "type": "address"
        },
        {
          "internalType": "uint256",
          "name": "amount",
          "type": "uint256"
        }
      ],
      "name": "withdraw",
      "outputs": [],
      "stateMutability": "payable",
      "type": "function"
    }
  ],
  "bytecode": "0x608060405234801561001057600080fd5b50336000806101000a81548173ffffffffffffffffffffffffffffffffffffffff021916908373ffffffffffffffffffffffffffffffffffffffff160217905550610490806100606000396000f3fe608060405260043610610060576000357c01000000000000000000000000000000000000000000000000000000009004806312065fe0146100ba578063224b5c72146100e55780638da5cb5b14610133578063f3fef3a314610174576100b5565b366100b5573373ffffffffffffffffffffffffffffffffffffffff167fd6717f327e0cb88b4a97a7f67a453e9258252c34937ccbdd86de7cb840e7def3346040518082815260200191505060405180910390a2005b600080fd5b3480156100c657600080fd5b506100cf6101c2565b6040518082815260200191505060405180910390f35b610131600480360360408110156100fb57600080fd5b81019080803573ffffffffffffffffffffffffffffffffffffffff169060200190929190803590602001909291905050506101e1565b005b34801561013f57600080fd5b506101486102c7565b604051808273ffffffffffffffffffffffffffffffffffffffff16815260200191505060405180910390f35b6101c06004803603604081101561018a57600080fd5b81019080803573ffffffffffffffffffffffffffffffffffffffff169060200190929190803590602001909291905050506102eb565b005b60003073ffffffffffffffffffffffffffffffffffffffff1631905090565b80803073ffffffffffffffffffffffffffffffffffffffff1631101561020657600080fd5b8282808273ffffffffffffffffffffffffffffffffffffffff16311061022b57600080fd5b8473ffffffffffffffffffffffffffffffffffffffff166108fc859081150290604051600060405180830381858888f19350505050158015610271573d6000803e3d6000fd5b508473ffffffffffffffffffffffffffffffffffffffff167fb3762e93ec66871dd27c421b64edc79636345ff0a949cd04f7f8efce5bd4240e856040518082815260200191505060405180910390a25050505050565b60008054906101000a900473ffffffffffffffffffffffffffffffffffffffff1681565b34803073ffffffffffffffffffffffffffffffffffffffff1631101561031057600080fd5b60008054906101000a900473ffffffffffffffffffffffffffffffffffffffff1673ffffffffffffffffffffffffffffffffffffffff163373ffffffffffffffffffffffffffffffffffffffff161461036857600080fd5b60008054906101000a900473ffffffffffffffffffffffffffffffffffffffff1673ffffffffffffffffffffffffffffffffffffffff168373ffffffffffffffffffffffffffffffffffffffff16146103c057600080fd5b8273ffffffffffffffffffffffffffffffffffffffff166108fc839081150290604051600060405180830381858888f19350505050158015610406573d6000803e3d6000fd5b508273ffffffffffffffffffffffffffffffffffffffff167f884edad9ce6fa2440d8a54cc123490eb96d2768479d49ff9c7366125a9424364836040518082815260200191505060405180910390a250505056fea2646970667358221220edfa7025532b2142146af3b74f24ec629935b2e357293ccb2e0e367be9cb478964736f6c634300060c0033",
  "source": "// SPDX-License-Identifier: non-open-source\r\npragma solidity >=0.6.0 <0.8.0;\r\n\r\n// This is a contract for donation fund account\r\n// The address deployed the contract is the \r\n// funding account\r\n// Donation is for adding fund to this account\r\n// Redeem is for releasing fund from this account\r\ncontract FundLean {\r\n\r\n    address public owner; \r\n\r\n    event Receive(address indexed _from, uint256 _value); \r\n    event Consume(address indexed _to, uint256 _value);\r\n    event Withdraw(address indexed _to, uint256 _value);\r\n\r\n    constructor() public {\r\n        owner = msg.sender;\r\n    }\r\n\r\n    modifier isOwner() {\r\n        require (address(msg.sender) == owner);\r\n        _;\r\n    }\r\n\r\n    modifier sufficient(uint256 amount) {\r\n        require(address(this).balance >= amount);\r\n        _;\r\n    }\r\n\r\n    modifier limited(address to, uint256 amount) {\r\n        require(to.balance < amount);\r\n        _;\r\n    }\r\n\r\n    receive () external payable {\r\n        emit Receive(msg.sender, msg.value);\r\n    }\r\n\r\n    function getBalance() public view returns(uint) {\r\n        return address(this).balance;\r\n    }\r\n\r\n    function consume(address payable to, uint256 amount) public sufficient(amount) \r\n                            limited(to, amount) payable {\r\n        \r\n        to.transfer(amount);\r\n        emit Consume(to, amount);\r\n    }\r\n\r\n    // withdraw fund to owner\r\n    function withdraw(address payable to, uint256 amount) public sufficient(msg.value) isOwner payable {\r\n        \r\n        require(to == owner);\r\n        to.transfer(amount);\r\n        emit Withdraw(to, amount);\r\n    }\r\n\r\n}",
  "sourcePath": "D:\\qiaoy\\projects\\blockchain\\harmonyOne\\payitforward\\contracts\\FundLean.sol",
  "compiler": {
    "name": "solc",
    "version": "0.6.12+commit.27d51765.Emscripten.clang"
  },
  "schemaVersion": "3.0.22",
  "updatedAt": "2020-09-27T20:01:31.296Z",
  "devdoc": {
    "kind": "dev",
    "methods": {},
    "version": 1
  },
  "userdoc": {
    "kind": "user",
    "methods": {},
    "version": 1
  }
}