{
  "contractName": "MyContract",
  "abi": [
    {
      "inputs": [],
      "name": "myFunction",
      "outputs": [
        {
          "internalType": "uint256",
          "name": "myNumber",
          "type": "uint256"
        },
        {
          "internalType": "string",
          "name": "myString",
          "type": "string"
        }
      ],
      "stateMutability": "pure",
      "type": "function"
    }
  ],
  "bytecode": "0x608060405234801561001057600080fd5b50610152806100206000396000f3fe608060405234801561001057600080fd5b5060043610610048576000357c010000000000000000000000000000000000000000000000000000000090048063c3780a3a1461004d575b600080fd5b6100556100d7565b6040518083815260200180602001828103825283818151815260200191508051906020019080838360005b8381101561009b578082015181840152602081019050610080565b50505050905090810190601f1680156100c85780820380516001836020036101000a031916815260200191505b50935050505060405180910390f35b60006060615ba06040518060400160405280600781526020017f48656c6c6f21250000000000000000000000000000000000000000000000000081525091509150909156fea26469706673582212202ab7db92cf7121d39c81dbb0d46d46f9de518ee4ff9258c9c9fb9c15dedd374964736f6c634300060c0033",
  "source": "pragma solidity >0.5.1;\r\n\r\n\r\ncontract MyContract {\r\n    function myFunction() public pure returns(uint256 myNumber, string memory myString) {\r\n        return (23456, \"Hello!%\");\r\n    }\r\n}",
  "sourcePath": "D:/qiaoy/projects/blockchain/harmonyOne/payitforward/contracts/MyContract.sol",
  "compiler": {
    "name": "solc",
    "version": "0.6.12+commit.27d51765.Emscripten.clang"
  },
  "schemaVersion": "3.0.22",
  "updatedAt": "2020-09-27T20:01:31.297Z",
  "devdoc": {
    "kind": "dev",
    "methods": {},
    "version": 1
  },
  "userdoc": {
    "kind": "user",
    "methods": {},
    "version": 1
  }
}