{
  "contractName": "WalletLean",
  "abi": [
    {
      "inputs": [],
      "stateMutability": "nonpayable",
      "type": "constructor"
    },
    {
      "anonymous": false,
      "inputs": [
        {
          "indexed": true,
          "internalType": "address",
          "name": "_owner",
          "type": "address"
        },
        {
          "indexed": false,
          "internalType": "uint256",
          "name": "amount",
          "type": "uint256"
        }
      ],
      "name": "Deposite",
      "type": "event"
    },
    {
      "anonymous": false,
      "inputs": [
        {
          "indexed": true,
          "internalType": "address",
          "name": "_from",
          "type": "address"
        },
        {
          "indexed": true,
          "internalType": "address",
          "name": "_to",
          "type": "address"
        },
        {
          "indexed": false,
          "internalType": "uint256",
          "name": "amount",
          "type": "uint256"
        }
      ],
      "name": "Donate",
      "type": "event"
    },
    {
      "anonymous": false,
      "inputs": [
        {
          "indexed": true,
          "internalType": "address",
          "name": "_to",
          "type": "address"
        },
        {
          "indexed": false,
          "internalType": "uint256",
          "name": "_value",
          "type": "uint256"
        }
      ],
      "name": "Withdraw",
      "type": "event"
    },
    {
      "inputs": [],
      "name": "owner",
      "outputs": [
        {
          "internalType": "address",
          "name": "",
          "type": "address"
        }
      ],
      "stateMutability": "view",
      "type": "function"
    },
    {
      "stateMutability": "payable",
      "type": "receive"
    },
    {
      "inputs": [
        {
          "internalType": "address payable",
          "name": "to",
          "type": "address"
        },
        {
          "internalType": "uint256",
          "name": "amount",
          "type": "uint256"
        }
      ],
      "name": "donate",
      "outputs": [],
      "stateMutability": "payable",
      "type": "function"
    },
    {
      "inputs": [],
      "name": "getBalance",
      "outputs": [
        {
          "internalType": "uint256",
          "name": "",
          "type": "uint256"
        }
      ],
      "stateMutability": "view",
      "type": "function"
    },
    {
      "inputs": [],
      "name": "getOwner",
      "outputs": [
        {
          "internalType": "address",
          "name": "",
          "type": "address"
        }
      ],
      "stateMutability": "view",
      "type": "function"
    },
    {
      "inputs": [
        {
          "internalType": "address payable",
          "name": "from",
          "type": "address"
        },
        {
          "internalType": "uint256",
          "name": "amount",
          "type": "uint256"
        }
      ],
      "name": "consume",
      "outputs": [
        {
          "internalType": "bool",
          "name": "",
          "type": "bool"
        }
      ],
      "stateMutability": "payable",
      "type": "function"
    },
    {
      "inputs": [
        {
          "internalType": "address payable",
          "name": "to",
          "type": "address"
        },
        {
          "internalType": "uint256",
          "name": "amount",
          "type": "uint256"
        }
      ],
      "name": "withdraw",
      "outputs": [],
      "stateMutability": "payable",
      "type": "function"
    }
  ],
  "bytecode": "0x608060405234801561001057600080fd5b50336000806101000a81548173ffffffffffffffffffffffffffffffffffffffff021916908373ffffffffffffffffffffffffffffffffffffffff1602179055506106c8806100606000396000f3fe608060405260043610610076576000357c01000000000000000000000000000000000000000000000000000000009004806312065fe0146100d0578063224b5c72146100fb578063893d20e81461015f5780638da5cb5b146101a0578063e69d849d146101e1578063f3fef3a31461022f576100cb565b366100cb573373ffffffffffffffffffffffffffffffffffffffff167f67d0e209d76ed24370106b1fd0fc1c82de411f7b72ba3d92736b75fe4add443a346040518082815260200191505060405180910390a2005b600080fd5b3480156100dc57600080fd5b506100e561027d565b6040518082815260200191505060405180910390f35b6101476004803603604081101561011157600080fd5b81019080803573ffffffffffffffffffffffffffffffffffffffff1690602001909291908035906020019092919050505061029c565b60405180821515815260200191505060405180910390f35b34801561016b57600080fd5b506101746103ac565b604051808273ffffffffffffffffffffffffffffffffffffffff16815260200191505060405180910390f35b3480156101ac57600080fd5b506101b56103d5565b604051808273ffffffffffffffffffffffffffffffffffffffff16815260200191505060405180910390f35b61022d600480360360408110156101f757600080fd5b81019080803573ffffffffffffffffffffffffffffffffffffffff169060200190929190803590602001909291905050506103f9565b005b61027b6004803603604081101561024557600080fd5b81019080803573ffffffffffffffffffffffffffffffffffffffff16906020019092919080359060200190929190505050610525565b005b60003073ffffffffffffffffffffffffffffffffffffffff1631905090565b60008060009054906101000a900473ffffffffffffffffffffffffffffffffffffffff1673ffffffffffffffffffffffffffffffffffffffff163373ffffffffffffffffffffffffffffffffffffffff16146102f757600080fd5b60008390508073ffffffffffffffffffffffffffffffffffffffff1663224b5c7230856040518363ffffffff167c0100000000000000000000000000000000000000000000000000000000028152600401808373ffffffffffffffffffffffffffffffffffffffff16815260200182815260200192505050600060405180830381600087803b15801561038957600080fd5b505af115801561039d573d6000803e3d6000fd5b50505050600191505092915050565b60008060009054906101000a900473ffffffffffffffffffffffffffffffffffffffff16905090565b60008054906101000a900473ffffffffffffffffffffffffffffffffffffffff1681565b343073ffffffffffffffffffffffffffffffffffffffff1631101561041d57600080fd5b60008054906101000a900473ffffffffffffffffffffffffffffffffffffffff1673ffffffffffffffffffffffffffffffffffffffff163373ffffffffffffffffffffffffffffffffffffffff161461047557600080fd5b8173ffffffffffffffffffffffffffffffffffffffff166108fc829081150290604051600060405180830381858888f193505050501580156104bb573d6000803e3d6000fd5b508173ffffffffffffffffffffffffffffffffffffffff163373ffffffffffffffffffffffffffffffffffffffff167f88dcaca629d63d86330e97adc358b13dd0ebd703239aea96b7ea2fb331b16f4e836040518082815260200191505060405180910390a35050565b343073ffffffffffffffffffffffffffffffffffffffff1631101561054957600080fd5b60008054906101000a900473ffffffffffffffffffffffffffffffffffffffff1673ffffffffffffffffffffffffffffffffffffffff163373ffffffffffffffffffffffffffffffffffffffff16146105a157600080fd5b60008054906101000a900473ffffffffffffffffffffffffffffffffffffffff1673ffffffffffffffffffffffffffffffffffffffff168273ffffffffffffffffffffffffffffffffffffffff16146105f957600080fd5b8173ffffffffffffffffffffffffffffffffffffffff166108fc829081150290604051600060405180830381858888f1935050505015801561063f573d6000803e3d6000fd5b508173ffffffffffffffffffffffffffffffffffffffff167f884edad9ce6fa2440d8a54cc123490eb96d2768479d49ff9c7366125a9424364826040518082815260200191505060405180910390a2505056fea2646970667358221220909c714ca8ff29ca2b4c76aecd36c39cb1b9c45d8a59620862c28b3e9f2a5de664736f6c634300060c0033",
  "source": "// SPDX-License-Identifier: non-open-source\r\npragma solidity >=0.6.0 <0.8.0;\r\n\r\nimport './FundLean.sol';\r\n\r\ncontract WalletLean {\r\n\r\n    address public owner; \r\n\r\n    constructor() public {\r\n        owner = msg.sender;\r\n    }\r\n\r\n    event Donate(address indexed _from, address indexed _to, uint256 amount);\r\n    event Deposite(address indexed _owner, uint256 amount);\r\n    event Withdraw(address indexed _to, uint256 _value);\r\n\r\n    modifier sufficient() {\r\n        require(address(this).balance >= msg.value);\r\n        _;\r\n    }\r\n\r\n    modifier isOwner() {\r\n        require (address(msg.sender) == owner);\r\n        _;\r\n    }\r\n\r\n    receive () external payable {\r\n        emit Deposite(msg.sender, msg.value);\r\n    }\r\n\r\n    // donate fund is to transfer fund to a donation Fund contract\r\n    function donate(address payable to, uint256 amount) public sufficient isOwner payable {\r\n        to.transfer(amount);\r\n        emit Donate(msg.sender, to, amount);        \r\n    }\r\n\r\n    function getBalance() public view returns(uint) {\r\n        return address(this).balance;\r\n    }\r\n\r\n    function getOwner() public view returns(address) {\r\n        return owner;\r\n    }\r\n\r\n    // consume fund from a smart contract address\r\n    function consume(address payable from, uint256 amount) public payable isOwner returns(bool) {\r\n        FundLean source = FundLean(from);\r\n        source.consume(address(this), amount);\r\n        return true;\r\n    }\r\n\r\n    // withdraw token from wallet to owner\r\n    function withdraw(address payable to, uint256 amount) public \r\n        sufficient isOwner payable {\r\n        \r\n        require(to == owner);\r\n        to.transfer(amount);\r\n        emit Withdraw(to, amount);\r\n    }\r\n}\r\n\r\n",
  "sourcePath": "D:/qiaoy/projects/blockchain/harmonyOne/payitforward/contracts/WalletLean.sol",
  "compiler": {
    "name": "solc",
    "version": "0.6.12+commit.27d51765.Emscripten.clang"
  },
  "schemaVersion": "3.0.22",
  "updatedAt": "2020-09-27T20:01:31.460Z",
  "devdoc": {
    "kind": "dev",
    "methods": {},
    "version": 1
  },
  "userdoc": {
    "kind": "user",
    "methods": {},
    "version": 1
  }
}