{
  "contractName": "WalletStored",
  "abi": [
    {
      "anonymous": false,
      "inputs": [
        {
          "indexed": true,
          "internalType": "address",
          "name": "_from",
          "type": "address"
        },
        {
          "indexed": true,
          "internalType": "address",
          "name": "_to",
          "type": "address"
        },
        {
          "indexed": false,
          "internalType": "uint256",
          "name": "amount",
          "type": "uint256"
        }
      ],
      "name": "Donate",
      "type": "event"
    },
    {
      "anonymous": false,
      "inputs": [
        {
          "indexed": true,
          "internalType": "address",
          "name": "_to",
          "type": "address"
        },
        {
          "indexed": false,
          "internalType": "uint256",
          "name": "_value",
          "type": "uint256"
        }
      ],
      "name": "Withdraw",
      "type": "event"
    },
    {
      "stateMutability": "payable",
      "type": "receive"
    },
    {
      "inputs": [
        {
          "internalType": "address",
          "name": "sender",
          "type": "address"
        }
      ],
      "name": "setOwner",
      "outputs": [],
      "stateMutability": "nonpayable",
      "type": "function"
    },
    {
      "inputs": [
        {
          "internalType": "address",
          "name": "from",
          "type": "address"
        },
        {
          "internalType": "address payable",
          "name": "to",
          "type": "address"
        },
        {
          "internalType": "uint256",
          "name": "amount",
          "type": "uint256"
        }
      ],
      "name": "donate",
      "outputs": [],
      "stateMutability": "payable",
      "type": "function"
    },
    {
      "inputs": [
        {
          "internalType": "address payable",
          "name": "provider",
          "type": "address"
        },
        {
          "internalType": "address",
          "name": "consumer",
          "type": "address"
        },
        {
          "internalType": "uint256",
          "name": "amount",
          "type": "uint256"
        }
      ],
      "name": "consume",
      "outputs": [],
      "stateMutability": "payable",
      "type": "function"
    },
    {
      "inputs": [
        {
          "internalType": "address payable",
          "name": "provider",
          "type": "address"
        },
        {
          "internalType": "address",
          "name": "consumer",
          "type": "address"
        },
        {
          "internalType": "uint256",
          "name": "amount",
          "type": "uint256"
        },
        {
          "internalType": "string",
          "name": "promiseName",
          "type": "string"
        },
        {
          "internalType": "uint256",
          "name": "promiseAmount",
          "type": "uint256"
        }
      ],
      "name": "consumeWithPromise",
      "outputs": [],
      "stateMutability": "payable",
      "type": "function"
    },
    {
      "inputs": [
        {
          "internalType": "address payable",
          "name": "to",
          "type": "address"
        },
        {
          "internalType": "uint256",
          "name": "amount",
          "type": "uint256"
        }
      ],
      "name": "withdraw",
      "outputs": [],
      "stateMutability": "payable",
      "type": "function"
    },
    {
      "inputs": [],
      "name": "getBalance",
      "outputs": [
        {
          "internalType": "uint256",
          "name": "",
          "type": "uint256"
        }
      ],
      "stateMutability": "view",
      "type": "function"
    },
    {
      "inputs": [],
      "name": "getOwner",
      "outputs": [
        {
          "internalType": "address",
          "name": "",
          "type": "address"
        }
      ],
      "stateMutability": "view",
      "type": "function"
    },
    {
      "inputs": [],
      "name": "getPromises",
      "outputs": [
        {
          "internalType": "string[]",
          "name": "",
          "type": "string[]"
        }
      ],
      "stateMutability": "view",
      "type": "function"
    }
  ],
  "bytecode": "0x608060405234801561001057600080fd5b50610e3e806100206000396000f3fe60806040526004361061009c576000357c01000000000000000000000000000000000000000000000000000000009004806383d3dc6f1161006b57806383d3dc6f14610134578063893d20e814610150578063a01afb0d1461017b578063f3fef3a3146101a6576100a3565b806312065fe0146100a857806313af4035146100d3578063386bc05a146100fc5780634ca959a014610118576100a3565b366100a357005b600080fd5b3480156100b457600080fd5b506100bd6101c2565b6040516100ca9190610c4e565b60405180910390f35b3480156100df57600080fd5b506100fa60048036038101906100f5919061091f565b6101e1565b005b61011660048036038101906101119190610a62565b610224565b005b610132600480360381019061012d9190610948565b610355565b005b61014e60048036038101906101499190610997565b610443565b005b34801561015c57600080fd5b506101656104b9565b6040516101729190610be8565b60405180910390f35b34801561018757600080fd5b506101906104e2565b60405161019d9190610c2c565b60405180910390f35b6101c060048036038101906101bb9190610a26565b610624565b005b60003073ffffffffffffffffffffffffffffffffffffffff1631905090565b806000806101000a81548173ffffffffffffffffffffffffffffffffffffffff021916908373ffffffffffffffffffffffffffffffffffffffff16021790555050565b8260008054906101000a900473ffffffffffffffffffffffffffffffffffffffff1673ffffffffffffffffffffffffffffffffffffffff168173ffffffffffffffffffffffffffffffffffffffff161461027d57600080fd5b81803073ffffffffffffffffffffffffffffffffffffffff163110156102a257600080fd5b8373ffffffffffffffffffffffffffffffffffffffff166108fc849081150290604051600060405180830381858888f193505050501580156102e8573d6000803e3d6000fd5b508373ffffffffffffffffffffffffffffffffffffffff168573ffffffffffffffffffffffffffffffffffffffff167f88dcaca629d63d86330e97adc358b13dd0ebd703239aea96b7ea2fb331b16f4e856040516103469190610c4e565b60405180910390a35050505050565b8160008054906101000a900473ffffffffffffffffffffffffffffffffffffffff1673ffffffffffffffffffffffffffffffffffffffff168173ffffffffffffffffffffffffffffffffffffffff16146103ae57600080fd5b60008490508073ffffffffffffffffffffffffffffffffffffffff1663224b5c7230856040518363ffffffff167c010000000000000000000000000000000000000000000000000000000002815260040161040a929190610c03565b600060405180830381600087803b15801561042457600080fd5b505af1158015610438573d6000803e3d6000fd5b505050505050505050565b8360008054906101000a900473ffffffffffffffffffffffffffffffffffffffff1673ffffffffffffffffffffffffffffffffffffffff168173ffffffffffffffffffffffffffffffffffffffff161461049c57600080fd5b6104a7868686610355565b6104b1838361073d565b505050505050565b60008060009054906101000a900473ffffffffffffffffffffffffffffffffffffffff16905090565b60608060028054905067ffffffffffffffff8111801561050157600080fd5b5060405190808252806020026020018201604052801561053557816020015b60608152602001906001900390816105205790505b50905060005b60028054905081101561061c576002818154811061055557fe5b906000526020600020018054600181600116156101000203166002900480601f0160208091040260200160405190810160405280929190818152602001828054600181600116156101000203166002900480156105f35780601f106105c8576101008083540402835291602001916105f3565b820191906000526020600020905b8154815290600101906020018083116105d657829003601f168201915b505050505082828151811061060457fe5b6020026020010181905250808060010191505061053b565b508091505090565b8160008054906101000a900473ffffffffffffffffffffffffffffffffffffffff1673ffffffffffffffffffffffffffffffffffffffff168173ffffffffffffffffffffffffffffffffffffffff161461067d57600080fd5b81803073ffffffffffffffffffffffffffffffffffffffff163110156106a257600080fd5b8373ffffffffffffffffffffffffffffffffffffffff166108fc849081150290604051600060405180830381858888f193505050501580156106e8573d6000803e3d6000fd5b508373ffffffffffffffffffffffffffffffffffffffff167f884edad9ce6fa2440d8a54cc123490eb96d2768479d49ff9c7366125a94243648460405161072f9190610c4e565b60405180910390a250505050565b604051806060016040528060028054905081526020018381526020018281525060018360405161076d9190610bd1565b90815260200160405180910390206000820151816000015560208201518160010190805190602001906107a19291906107ef565b50604082015181600201559050506002829080600181540180825580915050600190039060005260206000200160009091909190915090805190602001906107ea9291906107ef565b505050565b828054600181600116156101000203166002900490600052602060002090601f016020900481019282601f1061083057805160ff191683800117855561085e565b8280016001018555821561085e579182015b8281111561085d578251825591602001919060010190610842565b5b50905061086b919061086f565b5090565b5b80821115610888576000816000905550600101610870565b5090565b60008135905061089b81610dc3565b92915050565b6000813590506108b081610dda565b92915050565b600082601f8301126108c757600080fd5b81356108da6108d582610c96565b610c69565b915080825260208301602083018583830111156108f657600080fd5b610901838284610d70565b50505092915050565b60008135905061091981610df1565b92915050565b60006020828403121561093157600080fd5b600061093f8482850161088c565b91505092915050565b60008060006060848603121561095d57600080fd5b600061096b868287016108a1565b935050602061097c8682870161088c565b925050604061098d8682870161090a565b9150509250925092565b600080600080600060a086880312156109af57600080fd5b60006109bd888289016108a1565b95505060206109ce8882890161088c565b94505060406109df8882890161090a565b935050606086013567ffffffffffffffff8111156109fc57600080fd5b610a08888289016108b6565b9250506080610a198882890161090a565b9150509295509295909350565b60008060408385031215610a3957600080fd5b6000610a47858286016108a1565b9250506020610a588582860161090a565b9150509250929050565b600080600060608486031215610a7757600080fd5b6000610a858682870161088c565b9350506020610a96868287016108a1565b9250506040610aa78682870161090a565b9150509250925092565b6000610abd8383610b58565b905092915050565b610ace81610d34565b82525050565b610add81610d22565b82525050565b6000610aee82610cd2565b610af88185610cf5565b935083602082028501610b0a85610cc2565b8060005b85811015610b465784840389528151610b278582610ab1565b9450610b3283610ce8565b925060208a01995050600181019050610b0e565b50829750879550505050505092915050565b6000610b6382610cdd565b610b6d8185610d06565b9350610b7d818560208601610d7f565b610b8681610db2565b840191505092915050565b6000610b9c82610cdd565b610ba68185610d17565b9350610bb6818560208601610d7f565b80840191505092915050565b610bcb81610d66565b82525050565b6000610bdd8284610b91565b915081905092915050565b6000602082019050610bfd6000830184610ad4565b92915050565b6000604082019050610c186000830185610ac5565b610c256020830184610bc2565b9392505050565b60006020820190508181036000830152610c468184610ae3565b905092915050565b6000602082019050610c636000830184610bc2565b92915050565b6000604051905081810181811067ffffffffffffffff82111715610c8c57600080fd5b8060405250919050565b600067ffffffffffffffff821115610cad57600080fd5b601f19601f8301169050602081019050919050565b6000819050602082019050919050565b600081519050919050565b600081519050919050565b6000602082019050919050565b600082825260208201905092915050565b600082825260208201905092915050565b600081905092915050565b6000610d2d82610d46565b9050919050565b6000610d3f82610d46565b9050919050565b600073ffffffffffffffffffffffffffffffffffffffff82169050919050565b6000819050919050565b82818337600083830152505050565b60005b83811015610d9d578082015181840152602081019050610d82565b83811115610dac576000848401525b50505050565b6000601f19601f8301169050919050565b610dcc81610d22565b8114610dd757600080fd5b50565b610de381610d34565b8114610dee57600080fd5b50565b610dfa81610d66565b8114610e0557600080fd5b5056fea2646970667358221220edeeb3ce0c8b6d2b32809a3323232e24eef076351adddc63db01840da6d0ea5b64736f6c634300060c0033",
  "source": "// SPDX-License-Identifier: non-open-source\r\npragma solidity >=0.6.0 <0.8.0;\r\npragma experimental ABIEncoderV2;\r\n\r\nimport './Fund.sol';\r\n\r\ncontract WalletStored {\r\n\r\n    address private _owner; \r\n\r\n    struct Promise {\r\n        uint index;\r\n        string name;\r\n        uint256 amount;\r\n    }\r\n    \r\n    mapping( string => Promise ) promises;\r\n    string[] internal promiseNames;\r\n    \r\n    event Donate(address indexed _from, address indexed _to, uint256 amount);\r\n    event Withdraw(address indexed _to, uint256 _value);\r\n\r\n    modifier sufficient(uint256 amount) {\r\n        require(address(this).balance >= amount);\r\n        _;\r\n    }\r\n\r\n    modifier isOwner(address forCheck) {\r\n        require (address(forCheck) == _owner);\r\n        _;\r\n    }\r\n\r\n    receive () external payable {}\r\n\r\n    function addPromise(string memory name, uint256 amount) internal {\r\n\r\n        promises[name] = Promise(promiseNames.length, name, amount);\r\n\r\n        promiseNames.push(name);\r\n    }\r\n\r\n    function removePromise(string memory name) internal {\r\n        \r\n        // get the index of the promises, \r\n        uint index = promises[name].index;\r\n\r\n        // move the last one to the index, \r\n        uint lastIndex = promiseNames.length - 1; \r\n        promises[promiseNames[lastIndex]].index = index;\r\n        string memory lastPromiseName = promiseNames[lastIndex];\r\n        promiseNames[index] = lastPromiseName;\r\n        promiseNames.pop();\r\n    }\r\n\r\n    function setOwner(address sender) external {\r\n        _owner = sender;\r\n    }\r\n\r\n    // donate fund is to transfer fund to a donation Fund contract\r\n    function donate(address from, address payable to, uint256 amount) \r\n        external isOwner(from) sufficient(amount)  payable {\r\n        to.transfer(amount);\r\n        emit Donate(from, to, amount);        \r\n    }\r\n    \r\n    // consume fund from a Fund contract address\r\n    function consume(address payable provider, address consumer, uint256 amount) \r\n            public payable isOwner(consumer) {\r\n        Fund source = Fund(provider);\r\n        source.consume(address(this), amount);        \r\n    }\r\n\r\n    // consume fund from a Fund contract address\r\n    function consumeWithPromise(address payable provider, address consumer, uint256 amount, \r\n                            string memory promiseName, uint256 promiseAmount) \r\n            external payable isOwner(consumer)  {\r\n        consume(provider, consumer, amount);\r\n        addPromise(promiseName, promiseAmount);    \r\n    }\r\n\r\n    // withdraw token from wallet to owner\r\n    function withdraw(address payable to, uint256 amount) external \r\n        isOwner(to) sufficient(amount) payable {\r\n        to.transfer(amount);\r\n        emit Withdraw(to, amount);\r\n    }\r\n\r\n    function getBalance() public view returns(uint) {\r\n        return address(this).balance;\r\n    }\r\n\r\n    function getOwner() public view returns(address) {\r\n        return _owner;\r\n    }\r\n\r\n    function getPromises() public view returns(string[] memory) {\r\n\r\n        string[] memory stored = new string[](promiseNames.length);\r\n\r\n        for (uint i=0; i < promiseNames.length; i++) {\r\n\r\n            stored[i] = promiseNames[i];\r\n        }\r\n\r\n        return stored;\r\n    }\r\n}",
  "sourcePath": "D:/qiaoy/projects/blockchain/harmonyOne/payitforward/contracts/WalletStored.sol",
  "compiler": {
    "name": "solc",
    "version": "0.6.12+commit.27d51765.Emscripten.clang"
  },
  "schemaVersion": "3.0.22",
  "updatedAt": "2020-09-27T20:01:31.461Z",
  "devdoc": {
    "kind": "dev",
    "methods": {},
    "version": 1
  },
  "userdoc": {
    "kind": "user",
    "methods": {},
    "version": 1
  }
}